{
    "contractName": "Voting",
    "abi": [
        {
            "inputs": [],
            "stateMutability": "nonpayable",
            "type": "constructor"
        },
        {
            "inputs": [
                {
                    "internalType": "uint256",
                    "name": "id",
                    "type": "uint256"
                },
                {
                    "internalType": "string",
                    "name": "partySymbol",
                    "type": "string"
                }
            ],
            "name": "addCandidate",
            "outputs": [
                {
                    "internalType": "bool",
                    "name": "",
                    "type": "bool"
                }
            ],
            "stateMutability": "nonpayable",
            "type": "function"
        },
        {
            "inputs": [],
            "name": "getCandidates",
            "outputs": [
                {
                    "components": [
                        {
                            "internalType": "uint256",
                            "name": "id",
                            "type": "uint256"
                        },
                        {
                            "internalType": "string",
                            "name": "party",
                            "type": "string"
                        },
                        {
                            "internalType": "uint256",
                            "name": "votes",
                            "type": "uint256"
                        }
                    ],
                    "internalType": "struct Voting.Candidate[]",
                    "name": "",
                    "type": "tuple[]"
                }
            ],
            "stateMutability": "view",
            "type": "function"
        },
        {
            "inputs": [],
            "name": "getElectionTiming",
            "outputs": [
                {
                    "components": [
                        {
                            "internalType": "uint256",
                            "name": "electionStartTime",
                            "type": "uint256"
                        },
                        {
                            "internalType": "uint256",
                            "name": "electionEndTime",
                            "type": "uint256"
                        },
                        {
                            "internalType": "uint256",
                            "name": "electionResultTime",
                            "type": "uint256"
                        }
                    ],
                    "internalType": "struct Voting.electionTiming",
                    "name": "",
                    "type": "tuple"
                }
            ],
            "stateMutability": "view",
            "type": "function"
        },
        {
            "inputs": [
                {
                    "internalType": "string",
                    "name": "voterId",
                    "type": "string"
                }
            ],
            "name": "getVoterStatus",
            "outputs": [
                {
                    "internalType": "bool",
                    "name": "",
                    "type": "bool"
                }
            ],
            "stateMutability": "view",
            "type": "function"
        },
        {
            "inputs": [],
            "name": "getWinnerInElection",
            "outputs": [
                {
                    "components": [
                        {
                            "internalType": "uint256",
                            "name": "id",
                            "type": "uint256"
                        },
                        {
                            "internalType": "string",
                            "name": "party",
                            "type": "string"
                        },
                        {
                            "internalType": "uint256",
                            "name": "votes",
                            "type": "uint256"
                        }
                    ],
                    "internalType": "struct Voting.Candidate",
                    "name": "",
                    "type": "tuple"
                }
            ],
            "stateMutability": "view",
            "type": "function"
        },
        {
            "inputs": [
                {
                    "internalType": "string",
                    "name": "voterID",
                    "type": "string"
                },
                {
                    "internalType": "uint256",
                    "name": "candidateID",
                    "type": "uint256"
                }
            ],
            "name": "recordVote",
            "outputs": [
                {
                    "internalType": "bool",
                    "name": "",
                    "type": "bool"
                }
            ],
            "stateMutability": "nonpayable",
            "type": "function"
        },
        {
            "inputs": [
                {
                    "internalType": "uint256",
                    "name": "_electionStartTime",
                    "type": "uint256"
                },
                {
                    "internalType": "uint256",
                    "name": "_electionEndTime",
                    "type": "uint256"
                },
                {
                    "internalType": "uint256",
                    "name": "_electionResultTime",
                    "type": "uint256"
                }
            ],
            "name": "startElection",
            "outputs": [],
            "stateMutability": "nonpayable",
            "type": "function"
        }
    ],
    "bytecode": "608060405260006005556000600655600060075534801561001f57600080fd5b50600080546001600160a01b03191633179055610fb4806100416000396000f3fe608060405234801561001057600080fd5b506004361061007d5760003560e01c8063404ae3551161005b578063404ae355146100d6578063a2a8d2ae146100eb578063a552c9a0146100fe578063f84316f71461011c57600080fd5b806306a49fce146100825780630dedbcc4146100a05780631750a3d0146100c3575b600080fd5b61008a610146565b6040516100979190610b31565b60405180910390f35b6100b36100ae366004610c36565b61024b565b6040519015158152602001610097565b6100b36100d1366004610c7b565b6104a7565b6100de610696565b6040516100979190610cc2565b6100b36100f9366004610cdc565b610987565b61011a61010c366004610d19565b600592909255600655600755565b005b6101246109b2565b6040805182518152602080840151908201529181015190820152606001610097565b60606003805480602002602001604051908101604052809291908181526020016000905b828210156102425783829060005260206000209060030201604051806060016040529081600082015481526020016001820180546101a790610d45565b80601f01602080910402602001604051908101604052809291908181526020018280546101d390610d45565b80156102205780601f106101f557610100808354040283529160200191610220565b820191906000526020600020905b81548152906001019060200180831161020357829003601f168201915b505050505081526020016002820154815250508152602001906001019061016a565b50505050905090565b60008260018160405161025e9190610d79565b9081526040519081900360200190205460ff1615801561028e57503360009081526002602052604090205460ff16155b6102df5760405162461bcd60e51b815260206004820152601860248201527f446f75626c6520566f7465204e6f7420416c6c6f77656421000000000000000060448201526064015b60405180910390fd5b6005544210156103315760405162461bcd60e51b815260206004820152601b60248201527f456c656374696f6e206973206e6f74207374617274656420796574000000000060448201526064016102d6565b6103396109fc565b6103795760405162461bcd60e51b8152602060048201526011602482015270115b1958dd1a5bdb881a5cc8195b991959607a1b60448201526064016102d6565b61038283610a16565b6103c55760405162461bcd60e51b8152602060048201526014602482015273125b9d985b1a590810d85b991a59185d1948125160621b60448201526064016102d6565b60005b60035481101561049a5783600382815481106103e6576103e6610d95565b90600052602060002090600302016000015403610488576003818154811061041057610410610d95565b60009182526020822060026003909202010180549161042e83610dc1565b9190505550600180866040516104449190610d79565b90815260408051918290036020908101909220805493151560ff19948516179055336000908152600290925290208054909116600190811790915592506104a09050565b8061049281610dc1565b9150506103c8565b50600091505b5092915050565b600080546001600160a01b031633146104bf57600080fd5b60055442106105105760405162461bcd60e51b815260206004820181905260248201527f43616e2774206164642120456c656374696f6e20697320737461727465642e2e60448201526064016102d6565b61056a600480548060200260200160405190810160405280929190818152602001828054801561055f57602002820191906000526020600020905b81548152602001906001019080831161054b575b505050505084610a6c565b156105c25760405162461bcd60e51b815260206004820152602260248201527f4475706c69636174652043616e646964617465204944204e6f7420416c6c6f77604482015261195960f21b60648201526084016102d6565b604080516060810182528481526020810184815260009282018390526003805460018101825593819052825193027fc2575a0e9e593c00f959f8c92f12db2869c3395a3b0502d05e2516446f71f85b810193845590519192917fc2575a0e9e593c00f959f8c92f12db2869c3395a3b0502d05e2516446f71f85c9091019061064a9082610e29565b50604091909101516002909101555060048054600181810183556000929092527f8a35acfbc15ff81a39ae7d344fd709f28e8600b4aa8c65c6b64bfe7fe36bd19b018390555b92915050565b6106ba60405180606001604052806000815260200160608152602001600081525090565b600654421161070b5760405162461bcd60e51b815260206004820152601e60248201527f456c656374696f6e206973206e6f7420636f6d706c657465642079657421000060448201526064016102d6565b6000600360008154811061072157610721610d95565b90600052602060002090600302016040518060600160405290816000820154815260200160018201805461075490610d45565b80601f016020809104026020016040519081016040528092919081815260200182805461078090610d45565b80156107cd5780601f106107a2576101008083540402835291602001916107cd565b820191906000526020600020905b8154815290600101906020018083116107b057829003601f168201915b505050918352505060029190910154602090910152905060015b60035481101561098157604051634e4f544160e01b6020820152602401604051602081830303815290604052805190602001206003828154811061082d5761082d610d95565b906000526020600020906003020160010160405160200161084e9190610ee9565b60405160208183030381529060405280519060200120031561096f5781604001516003828154811061088257610882610d95565b906000526020600020906003020160020154111561096f57600381815481106108ad576108ad610d95565b9060005260206000209060030201604051806060016040529081600082015481526020016001820180546108e090610d45565b80601f016020809104026020016040519081016040528092919081815260200182805461090c90610d45565b80156109595780601f1061092e57610100808354040283529160200191610959565b820191906000526020600020905b81548152906001019060200180831161093c57829003601f168201915b5050505050815260200160028201548152505091505b8061097981610dc1565b9150506107e7565b50919050565b60006001826040516109999190610d79565b9081526040519081900360200190205460ff1692915050565b6109d660405180606001604052806000815260200160008152602001600081525090565b604051806060016040528060055481526020016006548152602001600754815250905090565b60004260055411158015610a11575042600654115b905090565b6000805b600454811015610a63578260048281548110610a3857610a38610d95565b906000526020600020015403610a515750600192915050565b80610a5b81610dc1565b915050610a1a565b50600092915050565b6000805b83518160ff161015610abb5782848260ff1681518110610a9257610a92610d95565b602002602001015103610aa9576001915050610690565b80610ab381610f5f565b915050610a70565b5060009392505050565b60005b83811015610ae0578181015183820152602001610ac8565b50506000910152565b8051825260006020820151606060208501528051806060860152610b14816080870160208501610ac5565b604093840151938501939093525050601f01601f19160160800190565b6000602080830181845280855180835260408601915060408160051b870101925083870160005b82811015610b8657603f19888603018452610b74858351610ae9565b94509285019290850190600101610b58565b5092979650505050505050565b634e487b7160e01b600052604160045260246000fd5b600082601f830112610bba57600080fd5b813567ffffffffffffffff80821115610bd557610bd5610b93565b604051601f8301601f19908116603f01168101908282118183101715610bfd57610bfd610b93565b81604052838152866020858801011115610c1657600080fd5b836020870160208301376000602085830101528094505050505092915050565b60008060408385031215610c4957600080fd5b823567ffffffffffffffff811115610c6057600080fd5b610c6c85828601610ba9565b95602094909401359450505050565b60008060408385031215610c8e57600080fd5b82359150602083013567ffffffffffffffff811115610cac57600080fd5b610cb885828601610ba9565b9150509250929050565b602081526000610cd56020830184610ae9565b9392505050565b600060208284031215610cee57600080fd5b813567ffffffffffffffff811115610d0557600080fd5b610d1184828501610ba9565b949350505050565b600080600060608486031215610d2e57600080fd5b505081359360208301359350604090920135919050565b600181811c90821680610d5957607f821691505b60208210810361098157634e487b7160e01b600052602260045260246000fd5b60008251610d8b818460208701610ac5565b9190910192915050565b634e487b7160e01b600052603260045260246000fd5b634e487b7160e01b600052601160045260246000fd5b600060018201610dd357610dd3610dab565b5060010190565b601f821115610e2457600081815260208120601f850160051c81016020861015610e015750805b601f850160051c820191505b81811015610e2057828155600101610e0d565b5050505b505050565b815167ffffffffffffffff811115610e4357610e43610b93565b610e5781610e518454610d45565b84610dda565b602080601f831160018114610e8c5760008415610e745750858301515b600019600386901b1c1916600185901b178555610e20565b600085815260208120601f198616915b82811015610ebb57888601518255948401946001909101908401610e9c565b5085821015610ed95787850151600019600388901b60f8161c191681555b5050505050600190811b01905550565b6000808354610ef781610d45565b60018281168015610f0f5760018114610f2457610f53565b60ff1984168752821515830287019450610f53565b8760005260208060002060005b85811015610f4a5781548a820152908401908201610f31565b50505082870194505b50929695505050505050565b600060ff821660ff8103610f7557610f75610dab565b6001019291505056fea2646970667358221220c12d3588e24989db4aeca6ad1e5bb0ad9dae81b5fbbe6d9d7c015aa92260f69864736f6c63430008130033",
    "sourcePath": "c:/_Narendra_Reddy/_Unity/voting-dapp/_Solidity/contracts/Voting.sol",
    "compiler": {
        "name": "solc",
        "version": "0.8.19+commit.7dd6d404"
    },
    "functionHashes": {
        "addCandidate(uint256,string)": "1750a3d0",
        "getCandidates()": "06a49fce",
        "getElectionTiming()": "f84316f7",
        "getVoterStatus(string)": "a2a8d2ae",
        "getWinnerInElection()": "404ae355",
        "recordVote(string,uint256)": "0dedbcc4",
        "startElection(uint256,uint256,uint256)": "a552c9a0"
    },
    "gasEstimates": {
        "creation": {
            "codeDepositCost": "804000",
            "executionCost": "40091",
            "totalCost": "844091"
        },
        "external": {
            "addCandidate(uint256,string)": "infinite",
            "getCandidates()": "infinite",
            "getElectionTiming()": "6801",
            "getVoterStatus(string)": "infinite",
            "getWinnerInElection()": "infinite",
            "recordVote(string,uint256)": "infinite",
            "startElection(uint256,uint256,uint256)": "66617"
        },
        "internal": {
            "arrayHasValue(uint256[] memory,uint256)": "infinite",
            "isElectionEnded()": "infinite",
            "isElectionRunning()": "4261",
            "isElectionYetToStart()": "infinite",
            "isValidCandidateId(uint256)": "infinite"
        }
    }
}